{
  "address": "0xccBba29463ceB532daE5e0b0ceA2e2FB480AbE76",
  "abi": [
    {
      "inputs": [
        {
          "internalType": "address",
          "name": "_usdc",
          "type": "address"
        },
        {
          "internalType": "address",
          "name": "_weth",
          "type": "address"
        },
        {
          "internalType": "address",
          "name": "_uniswapRouter",
          "type": "address"
        },
        {
          "internalType": "address",
          "name": "_aavePool",
          "type": "address"
        },
        {
          "internalType": "address",
          "name": "_ethUsdPriceFeed",
          "type": "address"
        },
        {
          "internalType": "address",
          "name": "_uniswapPool",
          "type": "address"
        },
        {
          "internalType": "address",
          "name": "_positionManager",
          "type": "address"
        },
        {
          "internalType": "address",
          "name": "_feeCollector",
          "type": "address"
        }
      ],
      "stateMutability": "nonpayable",
      "type": "constructor"
    },
    {
      "inputs": [
        {
          "internalType": "address",
          "name": "target",
          "type": "address"
        }
      ],
      "name": "AddressEmptyCode",
      "type": "error"
    },
    {
      "inputs": [
        {
          "internalType": "address",
          "name": "account",
          "type": "address"
        }
      ],
      "name": "AddressInsufficientBalance",
      "type": "error"
    },
    {
      "inputs": [],
      "name": "EnforcedPause",
      "type": "error"
    },
    {
      "inputs": [],
      "name": "ExpectedPause",
      "type": "error"
    },
    {
      "inputs": [],
      "name": "FailedInnerCall",
      "type": "error"
    },
    {
      "inputs": [
        {
          "internalType": "address",
          "name": "owner",
          "type": "address"
        }
      ],
      "name": "OwnableInvalidOwner",
      "type": "error"
    },
    {
      "inputs": [
        {
          "internalType": "address",
          "name": "account",
          "type": "address"
        }
      ],
      "name": "OwnableUnauthorizedAccount",
      "type": "error"
    },
    {
      "inputs": [],
      "name": "ReentrancyGuardReentrantCall",
      "type": "error"
    },
    {
      "inputs": [
        {
          "internalType": "address",
          "name": "token",
          "type": "address"
        }
      ],
      "name": "SafeERC20FailedOperation",
      "type": "error"
    },
    {
      "anonymous": false,
      "inputs": [
        {
          "indexed": false,
          "internalType": "uint256",
          "name": "timestamp",
          "type": "uint256"
        },
        {
          "indexed": false,
          "internalType": "uint256",
          "name": "amount",
          "type": "uint256"
        }
      ],
      "name": "Compounded",
      "type": "event"
    },
    {
      "anonymous": false,
      "inputs": [
        {
          "indexed": true,
          "internalType": "address",
          "name": "owner",
          "type": "address"
        },
        {
          "indexed": false,
          "internalType": "uint256",
          "name": "usdcAmount",
          "type": "uint256"
        },
        {
          "indexed": false,
          "internalType": "uint256",
          "name": "wethAmount",
          "type": "uint256"
        },
        {
          "indexed": false,
          "internalType": "uint256",
          "name": "timestamp",
          "type": "uint256"
        }
      ],
      "name": "EmergencyWithdrawal",
      "type": "event"
    },
    {
      "anonymous": false,
      "inputs": [
        {
          "indexed": true,
          "internalType": "address",
          "name": "user",
          "type": "address"
        },
        {
          "indexed": false,
          "internalType": "uint256",
          "name": "investmentId",
          "type": "uint256"
        },
        {
          "indexed": false,
          "internalType": "uint256",
          "name": "amount",
          "type": "uint256"
        },
        {
          "indexed": false,
          "internalType": "enum MiPlata.InvestmentType",
          "name": "investmentType",
          "type": "uint8"
        },
        {
          "indexed": false,
          "internalType": "uint256",
          "name": "amplitude",
          "type": "uint256"
        }
      ],
      "name": "InvestmentMade",
      "type": "event"
    },
    {
      "anonymous": false,
      "inputs": [
        {
          "indexed": true,
          "internalType": "address",
          "name": "previousOwner",
          "type": "address"
        },
        {
          "indexed": true,
          "internalType": "address",
          "name": "newOwner",
          "type": "address"
        }
      ],
      "name": "OwnershipTransferred",
      "type": "event"
    },
    {
      "anonymous": false,
      "inputs": [
        {
          "indexed": false,
          "internalType": "address",
          "name": "account",
          "type": "address"
        }
      ],
      "name": "Paused",
      "type": "event"
    },
    {
      "anonymous": false,
      "inputs": [
        {
          "indexed": true,
          "internalType": "address",
          "name": "user",
          "type": "address"
        },
        {
          "indexed": false,
          "internalType": "uint256",
          "name": "investmentId",
          "type": "uint256"
        },
        {
          "indexed": false,
          "internalType": "uint256",
          "name": "timestamp",
          "type": "uint256"
        }
      ],
      "name": "Rebalanced",
      "type": "event"
    },
    {
      "anonymous": false,
      "inputs": [
        {
          "indexed": false,
          "internalType": "address",
          "name": "account",
          "type": "address"
        }
      ],
      "name": "Unpaused",
      "type": "event"
    },
    {
      "anonymous": false,
      "inputs": [
        {
          "indexed": true,
          "internalType": "address",
          "name": "user",
          "type": "address"
        },
        {
          "indexed": false,
          "internalType": "uint256",
          "name": "investmentId",
          "type": "uint256"
        },
        {
          "indexed": false,
          "internalType": "uint256",
          "name": "amount",
          "type": "uint256"
        }
      ],
      "name": "Withdrawn",
      "type": "event"
    },
    {
      "inputs": [],
      "name": "AMPLITUDE_CONSERVATIVE",
      "outputs": [
        {
          "internalType": "uint256",
          "name": "",
          "type": "uint256"
        }
      ],
      "stateMutability": "view",
      "type": "function"
    },
    {
      "inputs": [],
      "name": "AMPLITUDE_MODERATE",
      "outputs": [
        {
          "internalType": "uint256",
          "name": "",
          "type": "uint256"
        }
      ],
      "stateMutability": "view",
      "type": "function"
    },
    {
      "inputs": [],
      "name": "AMPLITUDE_RISKY",
      "outputs": [
        {
          "internalType": "uint256",
          "name": "",
          "type": "uint256"
        }
      ],
      "stateMutability": "view",
      "type": "function"
    },
    {
      "inputs": [],
      "name": "COMPOUND_THRESHOLD",
      "outputs": [
        {
          "internalType": "uint256",
          "name": "",
          "type": "uint256"
        }
      ],
      "stateMutability": "view",
      "type": "function"
    },
    {
      "inputs": [],
      "name": "FEE_PERCENTAGE",
      "outputs": [
        {
          "internalType": "uint256",
          "name": "",
          "type": "uint256"
        }
      ],
      "stateMutability": "view",
      "type": "function"
    },
    {
      "inputs": [],
      "name": "MAX_INVESTMENT",
      "outputs": [
        {
          "internalType": "uint256",
          "name": "",
          "type": "uint256"
        }
      ],
      "stateMutability": "view",
      "type": "function"
    },
    {
      "inputs": [],
      "name": "MINIMUM_INVESTMENT",
      "outputs": [
        {
          "internalType": "uint256",
          "name": "",
          "type": "uint256"
        }
      ],
      "stateMutability": "view",
      "type": "function"
    },
    {
      "inputs": [],
      "name": "REBALANCE_THRESHOLD",
      "outputs": [
        {
          "internalType": "uint256",
          "name": "",
          "type": "uint256"
        }
      ],
      "stateMutability": "view",
      "type": "function"
    },
    {
      "inputs": [],
      "name": "VARIATION_HIGH",
      "outputs": [
        {
          "internalType": "uint256",
          "name": "",
          "type": "uint256"
        }
      ],
      "stateMutability": "view",
      "type": "function"
    },
    {
      "inputs": [],
      "name": "VARIATION_MEDIUM",
      "outputs": [
        {
          "internalType": "uint256",
          "name": "",
          "type": "uint256"
        }
      ],
      "stateMutability": "view",
      "type": "function"
    },
    {
      "inputs": [],
      "name": "aavePool",
      "outputs": [
        {
          "internalType": "contract IPool",
          "name": "",
          "type": "address"
        }
      ],
      "stateMutability": "view",
      "type": "function"
    },
    {
      "inputs": [],
      "name": "accumulatedFees",
      "outputs": [
        {
          "internalType": "uint256",
          "name": "",
          "type": "uint256"
        }
      ],
      "stateMutability": "view",
      "type": "function"
    },
    {
      "inputs": [
        {
          "internalType": "bytes",
          "name": "",
          "type": "bytes"
        }
      ],
      "name": "checkUpkeep",
      "outputs": [
        {
          "internalType": "bool",
          "name": "upkeepNeeded",
          "type": "bool"
        },
        {
          "internalType": "bytes",
          "name": "performData",
          "type": "bytes"
        }
      ],
      "stateMutability": "view",
      "type": "function"
    },
    {
      "inputs": [],
      "name": "emergencyWithdraw",
      "outputs": [],
      "stateMutability": "nonpayable",
      "type": "function"
    },
    {
      "inputs": [],
      "name": "ethUsdPriceFeed",
      "outputs": [
        {
          "internalType": "contract AggregatorV3Interface",
          "name": "",
          "type": "address"
        }
      ],
      "stateMutability": "view",
      "type": "function"
    },
    {
      "inputs": [],
      "name": "feeCollector",
      "outputs": [
        {
          "internalType": "address",
          "name": "",
          "type": "address"
        }
      ],
      "stateMutability": "view",
      "type": "function"
    },
    {
      "inputs": [
        {
          "internalType": "uint256",
          "name": "investmentId",
          "type": "uint256"
        }
      ],
      "name": "getInvestmentValue",
      "outputs": [
        {
          "internalType": "uint256",
          "name": "",
          "type": "uint256"
        }
      ],
      "stateMutability": "view",
      "type": "function"
    },
    {
      "inputs": [],
      "name": "getTotalUsers",
      "outputs": [
        {
          "internalType": "uint256",
          "name": "",
          "type": "uint256"
        }
      ],
      "stateMutability": "view",
      "type": "function"
    },
    {
      "inputs": [
        {
          "internalType": "address",
          "name": "user",
          "type": "address"
        }
      ],
      "name": "getUserInvestments",
      "outputs": [
        {
          "components": [
            {
              "internalType": "uint256",
              "name": "investmentId",
              "type": "uint256"
            },
            {
              "internalType": "enum MiPlata.InvestmentType",
              "name": "investmentType",
              "type": "uint8"
            },
            {
              "internalType": "uint256",
              "name": "usdcDeposited",
              "type": "uint256"
            },
            {
              "internalType": "uint256",
              "name": "wethBorrowed",
              "type": "uint256"
            },
            {
              "internalType": "uint256",
              "name": "lastAutoCompound",
              "type": "uint256"
            },
            {
              "internalType": "uint256",
              "name": "amplitude",
              "type": "uint256"
            },
            {
              "internalType": "uint256",
              "name": "tokenId",
              "type": "uint256"
            },
            {
              "internalType": "uint256",
              "name": "lastEthPrice",
              "type": "uint256"
            },
            {
              "internalType": "uint256",
              "name": "timestamp",
              "type": "uint256"
            }
          ],
          "internalType": "struct MiPlata.UserInvestment[]",
          "name": "",
          "type": "tuple[]"
        }
      ],
      "stateMutability": "view",
      "type": "function"
    },
    {
      "inputs": [
        {
          "internalType": "uint256",
          "name": "amount",
          "type": "uint256"
        },
        {
          "internalType": "enum MiPlata.InvestmentType",
          "name": "investmentType",
          "type": "uint8"
        }
      ],
      "name": "invest",
      "outputs": [],
      "stateMutability": "nonpayable",
      "type": "function"
    },
    {
      "inputs": [
        {
          "internalType": "address",
          "name": "",
          "type": "address"
        },
        {
          "internalType": "uint256",
          "name": "",
          "type": "uint256"
        }
      ],
      "name": "investments",
      "outputs": [
        {
          "internalType": "uint256",
          "name": "investmentId",
          "type": "uint256"
        },
        {
          "internalType": "enum MiPlata.InvestmentType",
          "name": "investmentType",
          "type": "uint8"
        },
        {
          "internalType": "uint256",
          "name": "usdcDeposited",
          "type": "uint256"
        },
        {
          "internalType": "uint256",
          "name": "wethBorrowed",
          "type": "uint256"
        },
        {
          "internalType": "uint256",
          "name": "lastAutoCompound",
          "type": "uint256"
        },
        {
          "internalType": "uint256",
          "name": "amplitude",
          "type": "uint256"
        },
        {
          "internalType": "uint256",
          "name": "tokenId",
          "type": "uint256"
        },
        {
          "internalType": "uint256",
          "name": "lastEthPrice",
          "type": "uint256"
        },
        {
          "internalType": "uint256",
          "name": "timestamp",
          "type": "uint256"
        }
      ],
      "stateMutability": "view",
      "type": "function"
    },
    {
      "inputs": [],
      "name": "lastProcessedUserIndex",
      "outputs": [
        {
          "internalType": "uint256",
          "name": "",
          "type": "uint256"
        }
      ],
      "stateMutability": "view",
      "type": "function"
    },
    {
      "inputs": [],
      "name": "owner",
      "outputs": [
        {
          "internalType": "address",
          "name": "",
          "type": "address"
        }
      ],
      "stateMutability": "view",
      "type": "function"
    },
    {
      "inputs": [],
      "name": "pause",
      "outputs": [],
      "stateMutability": "nonpayable",
      "type": "function"
    },
    {
      "inputs": [],
      "name": "paused",
      "outputs": [
        {
          "internalType": "bool",
          "name": "",
          "type": "bool"
        }
      ],
      "stateMutability": "view",
      "type": "function"
    },
    {
      "inputs": [
        {
          "internalType": "bytes",
          "name": "performData",
          "type": "bytes"
        }
      ],
      "name": "performUpkeep",
      "outputs": [],
      "stateMutability": "nonpayable",
      "type": "function"
    },
    {
      "inputs": [],
      "name": "positionManager",
      "outputs": [
        {
          "internalType": "contract INonfungiblePositionManager",
          "name": "",
          "type": "address"
        }
      ],
      "stateMutability": "view",
      "type": "function"
    },
    {
      "inputs": [],
      "name": "renounceOwnership",
      "outputs": [],
      "stateMutability": "nonpayable",
      "type": "function"
    },
    {
      "inputs": [
        {
          "internalType": "address",
          "name": "_feeCollector",
          "type": "address"
        }
      ],
      "name": "setFeeCollector",
      "outputs": [],
      "stateMutability": "nonpayable",
      "type": "function"
    },
    {
      "inputs": [
        {
          "internalType": "address",
          "name": "newOwner",
          "type": "address"
        }
      ],
      "name": "transferOwnership",
      "outputs": [],
      "stateMutability": "nonpayable",
      "type": "function"
    },
    {
      "inputs": [],
      "name": "uniswapPool",
      "outputs": [
        {
          "internalType": "contract IUniswapV3Pool",
          "name": "",
          "type": "address"
        }
      ],
      "stateMutability": "view",
      "type": "function"
    },
    {
      "inputs": [],
      "name": "uniswapRouter",
      "outputs": [
        {
          "internalType": "contract ISwapRouter",
          "name": "",
          "type": "address"
        }
      ],
      "stateMutability": "view",
      "type": "function"
    },
    {
      "inputs": [],
      "name": "unpause",
      "outputs": [],
      "stateMutability": "nonpayable",
      "type": "function"
    },
    {
      "inputs": [],
      "name": "usdc",
      "outputs": [
        {
          "internalType": "contract IERC20",
          "name": "",
          "type": "address"
        }
      ],
      "stateMutability": "view",
      "type": "function"
    },
    {
      "inputs": [
        {
          "internalType": "uint256",
          "name": "",
          "type": "uint256"
        }
      ],
      "name": "userAddresses",
      "outputs": [
        {
          "internalType": "address",
          "name": "",
          "type": "address"
        }
      ],
      "stateMutability": "view",
      "type": "function"
    },
    {
      "inputs": [
        {
          "internalType": "address",
          "name": "",
          "type": "address"
        }
      ],
      "name": "userInvestmentCounters",
      "outputs": [
        {
          "internalType": "uint256",
          "name": "",
          "type": "uint256"
        }
      ],
      "stateMutability": "view",
      "type": "function"
    },
    {
      "inputs": [],
      "name": "weth",
      "outputs": [
        {
          "internalType": "contract IERC20",
          "name": "",
          "type": "address"
        }
      ],
      "stateMutability": "view",
      "type": "function"
    },
    {
      "inputs": [
        {
          "internalType": "uint256",
          "name": "investmentId",
          "type": "uint256"
        }
      ],
      "name": "withdraw",
      "outputs": [],
      "stateMutability": "nonpayable",
      "type": "function"
    }
  ],
  "transactionHash": "0xe041bd030ae8a6f4ca29e635aeadace0cf90a753c73f29f278f44515db051a29",
  "args": [
    "0x036CbD53842c5426634e7929541eC2318f3dCF7e",
    "0x4200000000000000000000000000000000000006",
    "0x94cC0AaC535CCDB3C01d6787D6413C739ae12bc4",
    "0xbE781D7Bdf469f3d94a62Cdcc407aCe106AEcA74",
    "0x4aDC67696bA383F43DD60A9e78F2C97Fbbfc7cb1",
    "0xB39b858e70d1df1d3ec8CEC542189c3b96F13E45",
    "0x27F971cb582BF9E50F397e4d29a5C7A34f11faA2",
    "0x7B3B786C36720F0d367F62dDb4e4B98e6f54DffD"
  ],
  "numDeployments": 1,
  "solcInputHash": "d83f835f65f2f7fafb0999304001fd70",
  "bytecode": "0x60806040523480156200001157600080fd5b5060405162003c1038038062003c10833981016040819052620000349162000174565b33806200005b57604051631e4fbdf760e01b81526000600482015260240160405180910390fd5b620000668162000107565b5060018055600280546001600160a81b0319166101006001600160a01b039a8b1602179055600380546001600160a01b0319908116988a169890981790556004805488169689169690961790955560058054871694881694909417909355600680548616928716929092179091556007805485169186169190911790556008805484169185169190911790556009805490921692169190911790556200021c565b600080546001600160a01b038381166001600160a01b0319831681178455604051919092169283917f8be0079c531659141344cd1fd0a4f28419497f9722a3daafe3b4186f6b6457e09190a35050565b80516001600160a01b03811681146200016f57600080fd5b919050565b600080600080600080600080610100898b0312156200019257600080fd5b6200019d8962000157565b9750620001ad60208a0162000157565b9650620001bd60408a0162000157565b9550620001cd60608a0162000157565b9450620001dd60808a0162000157565b9350620001ed60a08a0162000157565b9250620001fd60c08a0162000157565b91506200020d60e08a0162000157565b90509295985092959890939650565b6139e4806200022c6000396000f3fe608060405234801561001057600080fd5b50600436106102315760003560e01c80636e04ff0d11610130578063a03e4bc3116100b8578063c85b967d1161007c578063c85b967d14610462578063c885c43b1461046b578063db2e21bc1461048b578063ecf6204d14610493578063f2fde38b146104a657600080fd5b8063a03e4bc3146103f6578063a42dce8014610409578063bdd3d8251461041c578063c415b95c1461042f578063c52c5c881461044257600080fd5b80638456cb59116100ff5780638456cb59146103cb5780638a4660fe146103d35780638be679ce1461025a5780638da5cb5b146103dd5780639be572f6146103ee57600080fd5b80636e04ff0d1461037c578063715018a61461039d578063735de9f7146103a5578063791b98bc146103b857600080fd5b80633fc8cef3116101be578063517454f111610182578063517454f114610338578063587f5ed7146103415780635c190bfc1461034a5780635c975abb146103535780635e03b67a1461036957600080fd5b80633fc8cef3146102ec57806342f6fb29146102ff5780634585e33b146103125780634c76361e14610281578063502c9bd51461032557600080fd5b80632e1a7d4d116102055780632e1a7d4d1461026c57806335a4bece146102815780633e413bee1461028c5780633e6d9770146102bc5780633f4ba83a146102e457600080fd5b80620b46f8146102365780630ad8f69d146102515780631ed406c01461025a5780632b34aaae14610263575b600080fd5b61023e601981565b6040519081526020015b60405180910390f35b61023e6101f481565b61023e6102ee81565b61023e6103e881565b61027f61027a366004613132565b6104b9565b005b61023e6305f5e10081565b6002546102a49061010090046001600160a01b031681565b6040516001600160a01b039091168152602001610248565b6102cf6102ca366004613160565b6108c8565b604051610248999897969594939291906131c4565b61027f610934565b6003546102a4906001600160a01b031681565b6006546102a4906001600160a01b031681565b61027f610320366004613210565b610946565b6102a4610333366004613132565b61097b565b61023e600d5481565b61023e600e5481565b61023e61022681565b60025460ff166040519015158152602001610248565b61027f610377366004613282565b6109a5565b61038f61038a366004613210565b610d0e565b6040516102489291906132da565b61027f610e51565b6004546102a4906001600160a01b031681565b6008546102a4906001600160a01b031681565b61027f610e63565b61023e624c4b4081565b6000546001600160a01b03166102a4565b600c5461023e565b6005546102a4906001600160a01b031681565b61027f610417366004613316565b610e73565b6007546102a4906001600160a01b031681565b6009546102a4906001600160a01b031681565b610455610450366004613316565b610e9d565b6040516102489190613333565b61023e61012c81565b61023e610479366004613316565b600b6020526000908152604090205481565b61027f610f9c565b61023e6104a1366004613132565b61113d565b61027f6104b4366004613316565b6111de565b6104c1611219565b6104c9611243565b336000818152600a60205260408120916104e39084611267565b905060008282815481106104f9576104f96133d4565b9060005260206000209060090201905060008160020154116105625760405162461bcd60e51b815260206004820152601760248201527f4e6f2068617920696e76657273696f6e2061637469766100000000000000000060448201526064015b60405180910390fd5b61056f816006015461131e565b61057c81600301546116d9565b61058981600201546117da565b6003546040516370a0823160e01b81523060048201526000916001600160a01b0316906370a0823190602401602060405180830381865afa1580156105d2573d6000803e3d6000fd5b505050506040513d601f19601f820116820180604052508101906105f691906133ea565b9050600061060382611820565b905060008184600201546106179190613419565b8654909150869061062a9060019061342c565b8154811061063a5761063a6133d4565b906000526020600020906009020186868154811061065a5761065a6133d4565b600091825260209091208254600990920201908155600180830154818301805460ff90921692909160ff1916908360028111156106995761069961318c565b021790555060028201548160020155600382015481600301556004820154816004015560058201548160050155600682015481600601556007820154816007015560088201548160080155905050858054806106f7576106f761343f565b60008281526020812060096000199093019283020181815560018101805460ff1916905560028101829055600381018290556004810182905560058101829055600681018290556007810182905560080181905591558654900361085f5760005b600c5481101561085d57336001600160a01b0316600c828154811061077f5761077f6133d4565b6000918252602090912001546001600160a01b03160361084b57600c80546107a99060019061342c565b815481106107b9576107b96133d4565b600091825260209091200154600c80546001600160a01b0390921691839081106107e5576107e56133d4565b9060005260206000200160006101000a8154816001600160a01b0302191690836001600160a01b03160217905550600c8054806108245761082461343f565b600082815260209020810160001990810180546001600160a01b031916905501905561085d565b8061085581613455565b915050610758565b505b60025461087b9061010090046001600160a01b031633836119d4565b604080518881526020810183905233917f92ccf450a286a957af52509bc1c9939d1a6a481783e142e41e2499f0bb66ebc6910160405180910390a25050505050506108c560018055565b50565b600a60205281600052604060002081815481106108e457600080fd5b600091825260209091206009909102018054600182015460028301546003840154600485015460058601546006870154600788015460089098015496995060ff9095169750929591949093919089565b61093c611a38565b610944611a65565b565b6000806109558385018561347c565b91509150811561096757610967611ab7565b801561097557610975611d55565b50505050565b600c818154811061098b57600080fd5b6000918252602090912001546001600160a01b0316905081565b6109ad611219565b6109b5611243565b624c4b40821015610a085760405162461bcd60e51b815260206004820152601960248201527f4d6f6e746f206d696e696d6f206e6f20616c63616e7a61646f000000000000006044820152606401610559565b6305f5e100821115610a545760405162461bcd60e51b81526020600482015260156024820152744d6f6e746f206d6178696d6f20657863656469646f60581b6044820152606401610559565b600254610a719061010090046001600160a01b0316333085611e33565b6000612710610a816019856134aa565b610a8b91906134d7565b90506000610a99828561342c565b600954600254919250610abe9161010090046001600160a01b039081169116846119d4565b6000612710610acf8361186a6134aa565b610ad991906134d7565b90506000612710610aec84610ea66134aa565b610af691906134d7565b9050610b0182611e6c565b6000610b0c82611f68565b90506000610b1987611fef565b90506000610b2885848461203d565b90506000610b3461242f565b336000908152600b60205260408120805492935090919082610b5583613455565b91905055905060006040518061012001604052808381526020018c6002811115610b8157610b8161318c565b815260208082018b905260408083018a90524260608401819052608084018a905260a0840189905260c0840188905260e090930192909252336000908152600a825291822080546001818101835591845292829020845160099094020192835590830151828201805494955085949192909160ff191690836002811115610c0a57610c0a61318c565b02179055506040828101516002830155606083015160038301556080830151600483015560a0830151600583015560c0830151600683015560e0830151600783015561010090920151600890910155336000908152600a6020522054600103610cb057600c80546001810182556000919091527fdf6966c971051c3d54ec59162606531493a51404a002842f56009d7e5cf4a8c70180546001600160a01b031916331790555b336001600160a01b03167f66fff6b0bd3e1f85abff4e26682c05a8d2a6b4db8812b651d56694750ed8f99c838b8e89604051610cef94939291906134eb565b60405180910390a250505050505050505050610d0a60018055565b5050565b600060606000806305f5e100610d23600e5490565b10610d2c575060015b60005b600c54811015610e0f576000600c8281548110610d4e57610d4e6133d4565b60009182526020808320909101546001600160a01b0316808352600a90915260408220909250905b8154811015610dec576000828281548110610d9357610d936133d4565b906000526020600020906009020190506000610dad61242f565b90506000610dbf836007015483612562565b905061012c8110610dd65760019850505050610dec565b5050508080610de490613455565b915050610d76565b508415610dfa575050610e0f565b50508080610e0790613455565b915050610d2f565b508180610e195750805b93508315610e485760408051831515602082015282151581830152815180820383018152606090910190915292505b50509250929050565b610e59611a38565b610944600061259e565b610e6b611a38565b6109446125ee565b610e7b611a38565b600980546001600160a01b0319166001600160a01b0392909216919091179055565b6001600160a01b0381166000908152600a60209081526040808320805482518185028101850190935280835260609492939192909184015b82821015610f91578382906000526020600020906009020160405180610120016040529081600082015481526020016001820160009054906101000a900460ff166002811115610f2757610f2761318c565b6002811115610f3857610f3861318c565b815260200160028201548152602001600382015481526020016004820154815260200160058201548152602001600682015481526020016007820154815260200160088201548152505081526020019060010190610ed5565b505050509050919050565b610fa4611a38565b6002546040516370a0823160e01b815230600482015260009161010090046001600160a01b0316906370a0823190602401602060405180830381865afa158015610ff2573d6000803e3d6000fd5b505050506040513d601f19601f8201168201806040525081019061101691906133ea565b6003546040516370a0823160e01b81523060048201529192506000916001600160a01b03909116906370a0823190602401602060405180830381865afa158015611064573d6000803e3d6000fd5b505050506040513d601f19601f8201168201806040525081019061108891906133ea565b905081156110bd576110bd6110a56000546001600160a01b031690565b60025461010090046001600160a01b031690846119d4565b80156110eb576110eb6110d86000546001600160a01b031690565b6003546001600160a01b031690836119d4565b6000546040805184815260208101849052428183015290516001600160a01b03909216917f5e51ee1d526b1e287667d5b5aa0f1595afa8e91197fb257f8351274f8fca50be9181900360600190a25050565b336000818152600a60205260408120909182919061115b9085611267565b8154811061116b5761116b6133d4565b90600052602060002090600902019050600061118a826006015461262b565b600283015490915060006305f5e1006111a161242f565b85600301546111b091906134aa565b6111ba91906134d7565b90506000816111c98486613419565b6111d3919061342c565b979650505050505050565b6111e6611a38565b6001600160a01b03811661121057604051631e4fbdf760e01b815260006004820152602401610559565b6108c58161259e565b60026001540361123c57604051633ee5aeb560e01b815260040160405180910390fd5b6002600155565b60025460ff16156109445760405163d93c066560e01b815260040160405180910390fd5b6001600160a01b0382166000908152600a60205260408120815b81548110156112cf578382828154811061129d5761129d6133d4565b906000526020600020906009020160000154036112bd5791506113189050565b806112c781613455565b915050611281565b5060405162461bcd60e51b815260206004820152601760248201527f496e76657273696f6e206e6f20656e636f6e74726164610000000000000000006044820152606401610559565b92915050565b60085460405163133f757160e31b8152600481018390526000916001600160a01b0316906399fbab889060240161018060405180830381865afa158015611369573d6000803e3d6000fd5b505050506040513d601f19601f8201168201806040525081019061138d9190613561565b50505050505050505092505050306001600160a01b0316816001600160a01b0316146114055760405162461bcd60e51b815260206004820152602160248201527f546f6b656e204944206e6f2070657274656e65636520616c20636f6e747261746044820152606f60f81b6064820152608401610559565b60085460405163133f757160e31b8152600481018490526000916001600160a01b0316906399fbab889060240161018060405180830381865afa158015611450573d6000803e3d6000fd5b505050506040513d601f19601f820116820180604052508101906114749190613561565b505050509750505050505050506000816001600160801b0316116114da5760405162461bcd60e51b815260206004820152601e60248201527f4e6f20686179206c6971756964657a20656e206c6120706f736963696f6e00006044820152606401610559565b60006040518060a00160405280858152602001836001600160801b031681526020016000815260200160008152602001426103846115189190613419565b905260085460408051630624e65f60e11b81528351600482015260208401516001600160801b0316602482015290830151604482015260608301516064820152608083015160848201529192506001600160a01b031690630c49ccbe9060a40160408051808303816000875af1158015611596573d6000803e3d6000fd5b505050506040513d601f19601f820116820180604052508101906115ba9190613642565b50506040805160808101825285815230602082019081526001600160801b0382840181815260608401828152600854955163fc6f786560e01b81528551600482015293516001600160a01b0390811660248601529151831660448501525190911660648301529192919091169063fc6f78659060840160408051808303816000875af115801561164e573d6000803e3d6000fd5b505050506040513d601f19601f820116820180604052508101906116729190613642565b5050600854604051630852cd8d60e31b8152600481018790526001600160a01b03909116906342966c6890602401600060405180830381600087803b1580156116ba57600080fd5b505af11580156116ce573d6000803e3d6000fd5b505050505050505050565b60035460055460405163095ea7b360e01b81526001600160a01b0391821660048201526024810184905291169063095ea7b3906044016020604051808303816000875af115801561172e573d6000803e3d6000fd5b505050506040513d601f19601f820116820180604052508101906117529190613666565b5060055460035460405163573ade8160e01b81526001600160a01b039182166004820152602481018490526002604482015230606482015291169063573ade81906084015b6020604051808303816000875af11580156117b6573d6000803e3d6000fd5b505050506040513d601f19601f82011682018060405250810190610d0a91906133ea565b600554600254604051631a4ca37b60e21b81526001600160a01b0361010090920482166004820152602481018490523060448201529116906369328dec90606401611797565b6003546004805460405163095ea7b360e01b81526001600160a01b039182169281019290925260248201849052600092169063095ea7b3906044016020604051808303816000875af115801561187a573d6000803e3d6000fd5b505050506040513d601f19601f8201168201806040525081019061189e9190613666565b506040805161010080820183526003546001600160a01b03908116835260025491909104166020820152610bb891810191909152306060820152600090608081016118eb42610384613419565b815260208082018690526000604080840182905260609384019190915260048054825163414bf38960e01b815286516001600160a01b039081169382019390935293860151821660248501529185015162ffffff16604484015292840151831660648301526080840151608483015260a084015160a483015260c084015160c483015260e0840151831660e483015292935091169063414bf38990610104016020604051808303816000875af11580156119a9573d6000803e3d6000fd5b505050506040513d601f19601f820116820180604052508101906119cd91906133ea565b9392505050565b6040516001600160a01b03838116602483015260448201839052611a3391859182169063a9059cbb906064015b604051602081830303815290604052915060e01b6020820180516001600160e01b038381831617835250505050612672565b505050565b6000546001600160a01b031633146109445760405163118cdaa760e01b8152336004820152602401610559565b611a6d6126d5565b6002805460ff191690557f5db9ee0a495bf2e6ff9c91a7834c1ba4fdd244a5e8aa4e537bd38aeae4b073aa335b6040516001600160a01b03909116815260200160405180910390a1565b60005b600c548110156108c5576000600c8281548110611ad957611ad96133d4565b60009182526020808320909101546001600160a01b0316808352600a90915260408220909250905b8154811015611d3f576000828281548110611b1e57611b1e6133d4565b906000526020600020906009020190506000611b3861242f565b90506000611b4a836007015483612562565b905061012c8110611d2957611b62836006015461131e565b611b6f83600301546116d9565b611b7c83600201546117da565b6003546040516370a0823160e01b8152306004820152600091611bf4916001600160a01b03909116906370a0823190602401602060405180830381865afa158015611bcb573d6000803e3d6000fd5b505050506040513d601f19601f82011682018060405250810190611bef91906133ea565b611820565b8460020154611c039190613419565b90506000612710611c156019846134aa565b611c1f91906134d7565b90506000611c2d828461342c565b600954600254919250611c529161010090046001600160a01b039081169116846119d4565b6000612710611c638361186a6134aa565b611c6d91906134d7565b90506000612710611c8084610ea66134aa565b611c8a91906134d7565b9050611c9582611e6c565b6000611ca082611f68565b90506000611cb384838c6005015461203d565b60028b0185905560038b0183905560068b0181905560078b018a90554260048c018190558b546040805191825260208201929092529192506001600160a01b038f16917f3645b7cfbb41ac8e6dcc3c4877ede2c60b467a0374b7a7fc7563f0a09580999e910160405180910390a2505050505050505b5050508080611d3790613455565b915050611b01565b5050508080611d4d90613455565b915050611aba565b6000611d60600e5490565b90506305f5e100811015611dc45760405162461bcd60e51b815260206004820152602560248201527f4e6f2068617920737566696369656e7465732066656573207061726120636f6d6044820152643837b732b960d91b6064820152608401610559565b6000600e819055611dd66002836134d7565b90506000611de3826126f8565b905081611df381836103e861203d565b5060408051428152602081018690527f8082b0dab6d73a8025e5f15e4fdd54b68197a613e361810d4a2446c634b98ada910160405180910390a150505050565b6040516001600160a01b0384811660248301528381166044830152606482018390526109759186918216906323b872dd90608401611a01565b60025460055460405163095ea7b360e01b81526001600160a01b03918216600482015260248101849052610100909204169063095ea7b3906044016020604051808303816000875af1158015611ec6573d6000803e3d6000fd5b505050506040513d601f19601f82011682018060405250810190611eea9190613666565b5060055460025460405163617ba03760e01b81526001600160a01b0361010090920482166004820152602481018490523060448201526000606482015291169063617ba03790608401600060405180830381600087803b158015611f4d57600080fd5b505af1158015611f61573d6000803e3d6000fd5b5050505050565b60055460035460405163a415bcad60e01b81526001600160a01b039182166004820152602481018490526002604482015260006064820181905230608483015292919091169063a415bcad9060a401600060405180830381600087803b158015611fd157600080fd5b505af1158015611fe5573d6000803e3d6000fd5b5093949350505050565b6000808260028111156120045761200461318c565b0361201257506101f4919050565b60018260028111156120265761202661318c565b0361203457506102ee919050565b506103e8919050565b60025460085460405163095ea7b360e01b81526001600160a01b0391821660048201526024810186905260009261010090049091169063095ea7b3906044016020604051808303816000875af115801561209b573d6000803e3d6000fd5b505050506040513d601f19601f820116820180604052508101906120bf9190613666565b5060035460085460405163095ea7b360e01b81526001600160a01b0391821660048201526024810186905291169063095ea7b3906044016020604051808303816000875af1158015612115573d6000803e3d6000fd5b505050506040513d601f19601f820116820180604052508101906121399190613666565b5060075460408051633850c7bd60e01b815290516000926001600160a01b031691633850c7bd9160048083019260e09291908290030181865afa158015612184573d6000803e3d6000fd5b505050506040513d601f19601f820116820180604052508101906121a89190613695565b50505050509150506000600760009054906101000a90046001600160a01b03166001600160a01b031663d0c93a7c6040518163ffffffff1660e01b8152600401602060405180830381865afa158015612205573d6000803e3d6000fd5b505050506040513d601f19601f82011682018060405250810190612229919061372a565b9050627fffff8411156122745760405162461bcd60e51b8152602060048201526013602482015272416d706c697475646520746f6f206c6172676560681b6044820152606401610559565b8360006122818383613745565b61228b908561376c565b905060006122998484613745565b6122a39086613791565b6040805161016081018252600280546001600160a01b0361010090910481168352600354166020830152610bb89282019290925284820b60608201529082900b608082015260a081018b905260c081018a905290915060009060e08101606461230d8d60636134aa565b61231791906134d7565b815260200160646123298c60636134aa565b61233391906134d7565b815230602082015260400161234a42610384613419565b9052600854604051634418b22b60e11b81529192506001600160a01b03169063883164569061237d9084906004016137b6565b6080604051808303816000875af115801561239c573d6000803e3d6000fd5b505050506040513d601f19601f820116820180604052508101906123c0919061387a565b50919850505060008790036124225760405162461bcd60e51b815260206004820152602260248201527f4572726f7220616c20637265617220706f736963696f6e20656e20556e697377604482015261061760f41b6064820152608401610559565b5050505050509392505050565b6000806000600660009054906101000a90046001600160a01b03166001600160a01b031663feaf968c6040518163ffffffff1660e01b815260040160a060405180830381865afa158015612487573d6000803e3d6000fd5b505050506040513d601f19601f820116820180604052508101906124ab91906138d0565b50935050925050600082136125025760405162461bcd60e51b815260206004820152601760248201527f50726563696f204554482f55534420696e76616c69646f0000000000000000006044820152606401610559565b610e1061250f824261342c565b1061255c5760405162461bcd60e51b815260206004820152601d60248201527f50726563696f204554482f5553442064657361637475616c697a61646f0000006044820152606401610559565b50919050565b60008282106125935782612576818461342c565b612582906127106134aa565b61258c91906134d7565b9050611318565b82612576838261342c565b600080546001600160a01b038381166001600160a01b0319831681178455604051919092169283917f8be0079c531659141344cd1fd0a4f28419497f9722a3daafe3b4186f6b6457e09190a35050565b6125f6611243565b6002805460ff191660011790557f62e78cea01bee320cd4e420270b5ea74000d11b0c9f74754ebdbfc544b05a258611a9a3390565b6000806000612639846127c5565b91509150600061264761242f565b905060006305f5e10061265a83856134aa565b61266491906134d7565b905060006111d38286613419565b60006126876001600160a01b03841683612908565b905080516000141580156126ac5750808060200190518101906126aa9190613666565b155b15611a3357604051635274afe760e01b81526001600160a01b0384166004820152602401610559565b60025460ff1661094457604051638dfc202b60e01b815260040160405180910390fd5b6002546004805460405163095ea7b360e01b81526001600160a01b0391821692810192909252602482018490526000926101009004169063095ea7b3906044016020604051808303816000875af1158015612757573d6000803e3d6000fd5b505050506040513d601f19601f8201168201806040525081019061277b9190613666565b50604080516101008082018352600254046001600160a01b039081168252600354166020820152610bb891810191909152306060820152600090608081016118eb42610384613419565b60085460405163133f757160e31b815260048101839052600091829182916001600160a01b0316906399fbab889060240161018060405180830381865afa158015612814573d6000803e3d6000fd5b505050506040513d601f19601f820116820180604052508101906128389190613561565b50505050975050505050505050806001600160801b03166000036128625750600093849350915050565b60075460408051633850c7bd60e01b815290516000926001600160a01b031691633850c7bd9160048083019260e09291908290030181865afa1580156128ac573d6000803e3d6000fd5b505050506040513d601f19601f820116820180604052508101906128d09190613695565b505050505050905060006128e386612916565b5090506128f18282856129b8565b94506128fe828285612a33565b9350505050915091565b60606119cd83836000612a7d565b60085460405163133f757160e31b8152600481018390526000918291829182916001600160a01b03909116906399fbab889060240161018060405180830381865afa158015612969573d6000803e3d6000fd5b505050506040513d601f19601f8201168201806040525081019061298d9190613561565b50505050509650965050505050506129a482612b1a565b93506129af81612b1a565b92505050915091565b6000826001600160a01b0316846001600160a01b031611156129d8579192915b6001600160a01b038416612a216fffffffffffffffffffffffffffffffff60601b606085901b16612a098787613920565b6001600160a01b0316866001600160a01b0316612f34565b612a2b91906134d7565b949350505050565b6000826001600160a01b0316846001600160a01b03161115612a53579192915b612a2b6001600160801b038316612a6a8686613920565b6001600160a01b0316600160601b612f34565b606081471015612aa25760405163cd78605960e01b8152306004820152602401610559565b600080856001600160a01b03168486604051612abe9190613940565b60006040518083038185875af1925050503d8060008114612afb576040519150601f19603f3d011682016040523d82523d6000602084013e612b00565b606091505b5091509150612b108683836130ad565b9695505050505050565b60008060008360020b12612b31578260020b612b3e565b8260020b612b3e9061395c565b9050612b4d620d89e719613978565b62ffffff16811115612b855760405162461bcd60e51b81526020600482015260016024820152601560fa1b6044820152606401610559565b600081600116600003612b9c57600160801b612bae565b6ffffcb933bd6fad37aa2d162d1a5940015b70ffffffffffffffffffffffffffffffffff1690506002821615612bed576080612be8826ffff97272373d413259a46990580e213a6134aa565b901c90505b6004821615612c17576080612c12826ffff2e50f5f656932ef12357cf3c7fdcc6134aa565b901c90505b6008821615612c41576080612c3c826fffe5caca7e10e4e61c3624eaa0941cd06134aa565b901c90505b6010821615612c6b576080612c66826fffcb9843d60f6159c9db58835c9266446134aa565b901c90505b6020821615612c95576080612c90826fff973b41fa98c081472e6896dfb254c06134aa565b901c90505b6040821615612cbf576080612cba826fff2ea16466c96a3843ec78b326b528616134aa565b901c90505b6080821615612ce9576080612ce4826ffe5dee046a99a2a811c461f1969c30536134aa565b901c90505b610100821615612d14576080612d0f826ffcbe86c7900a88aedcffc83b479aa3a46134aa565b901c90505b610200821615612d3f576080612d3a826ff987a7253ac413176f2b074cf7815e546134aa565b901c90505b610400821615612d6a576080612d65826ff3392b0822b70005940c7a398e4b70f36134aa565b901c90505b610800821615612d95576080612d90826fe7159475a2c29b7443b29c7fa6e889d96134aa565b901c90505b611000821615612dc0576080612dbb826fd097f3bdfd2022b8845ad8f792aa58256134aa565b901c90505b612000821615612deb576080612de6826fa9f746462d870fdf8a65dc1f90e061e56134aa565b901c90505b614000821615612e16576080612e11826f70d869a156d2a1b890bb3df62baf32f76134aa565b901c90505b618000821615612e41576080612e3c826f31be135f97d08fd981231505542fcfa66134aa565b901c90505b62010000821615612e6d576080612e68826f09aa508b5b7a84e1c677de54f3e99bc96134aa565b901c90505b62020000821615612e98576080612e93826e5d6af8dedb81196699c329225ee6046134aa565b901c90505b62040000821615612ec2576080612ebd826d2216e584f5fa1ea926041bedfe986134aa565b901c90505b62080000821615612eea576080612ee5826b048a170391f7dc42444e8fa26134aa565b901c90505b60008460020b1315612f0557612f02816000196134d7565b90505b612f146401000000008261399a565b15612f20576001612f23565b60005b612a2b9060ff16602083901c613419565b6000808060001985870985870292508281108382030391505080600003612f6d5760008411612f6257600080fd5b5082900490506119cd565b808411612f7957600080fd5b600084868809808403938111909203919050600085612f9a81196001613419565b16958690049593849004936000819003046001019050612fba81846134aa565b909317926000612fcb8760036134aa565b6002189050612fda81886134aa565b612fe590600261342c565b612fef90826134aa565b9050612ffb81886134aa565b61300690600261342c565b61301090826134aa565b905061301c81886134aa565b61302790600261342c565b61303190826134aa565b905061303d81886134aa565b61304890600261342c565b61305290826134aa565b905061305e81886134aa565b61306990600261342c565b61307390826134aa565b905061307f81886134aa565b61308a90600261342c565b61309490826134aa565b90506130a081866134aa565b9998505050505050505050565b6060826130c2576130bd82613109565b6119cd565b81511580156130d957506001600160a01b0384163b155b1561310257604051639996b31560e01b81526001600160a01b0385166004820152602401610559565b50806119cd565b8051156131195780518082602001fd5b604051630a12f52160e11b815260040160405180910390fd5b60006020828403121561314457600080fd5b5035919050565b6001600160a01b03811681146108c557600080fd5b6000806040838503121561317357600080fd5b823561317e8161314b565b946020939093013593505050565b634e487b7160e01b600052602160045260246000fd5b600381106131c057634e487b7160e01b600052602160045260246000fd5b9052565b89815261012081016131d9602083018b6131a2565b60408201989098526060810196909652608086019490945260a085019290925260c084015260e08301526101009091015292915050565b6000806020838503121561322357600080fd5b823567ffffffffffffffff8082111561323b57600080fd5b818501915085601f83011261324f57600080fd5b81358181111561325e57600080fd5b86602082850101111561327057600080fd5b60209290920196919550909350505050565b6000806040838503121561329557600080fd5b823591506020830135600381106132ab57600080fd5b809150509250929050565b60005b838110156132d15781810151838201526020016132b9565b50506000910152565b821515815260406020820152600082518060408401526133018160608501602087016132b6565b601f01601f1916919091016060019392505050565b60006020828403121561332857600080fd5b81356119cd8161314b565b602080825282518282018190526000919060409081850190868401855b828110156133c7578151805185528681015161336e888701826131a2565b508086015185870152606080820151908601526080808201519086015260a0808201519086015260c0808201519086015260e0808201519086015261010090810151908501526101209093019290850190600101613350565b5091979650505050505050565b634e487b7160e01b600052603260045260246000fd5b6000602082840312156133fc57600080fd5b5051919050565b634e487b7160e01b600052601160045260246000fd5b8082018082111561131857611318613403565b8181038181111561131857611318613403565b634e487b7160e01b600052603160045260246000fd5b60006001820161346757613467613403565b5060010190565b80151581146108c557600080fd5b6000806040838503121561348f57600080fd5b823561349a8161346e565b915060208301356132ab8161346e565b808202811582820484141761131857611318613403565b634e487b7160e01b600052601260045260246000fd5b6000826134e6576134e66134c1565b500490565b848152602081018490526080810161350660408301856131a2565b82606083015295945050505050565b80516135208161314b565b919050565b805162ffffff8116811461352057600080fd5b8051600281900b811461352057600080fd5b80516001600160801b038116811461352057600080fd5b6000806000806000806000806000806000806101808d8f03121561358457600080fd5b8c516bffffffffffffffffffffffff811681146135a057600080fd5b9b506135ae60208e01613515565b9a506135bc60408e01613515565b99506135ca60608e01613515565b98506135d860808e01613525565b97506135e660a08e01613538565b96506135f460c08e01613538565b955061360260e08e0161354a565b94506101008d015193506101208d015192506136216101408e0161354a565b91506136306101608e0161354a565b90509295989b509295989b509295989b565b6000806040838503121561365557600080fd5b505080516020909101519092909150565b60006020828403121561367857600080fd5b81516119cd8161346e565b805161ffff8116811461352057600080fd5b600080600080600080600060e0888a0312156136b057600080fd5b87516136bb8161314b565b96506136c960208901613538565b95506136d760408901613683565b94506136e560608901613683565b93506136f360808901613683565b925060a088015160ff8116811461370957600080fd5b60c089015190925061371a8161346e565b8091505092959891949750929550565b60006020828403121561373c57600080fd5b6119cd82613538565b60008260020b8260020b028060020b915080821461376557613765613403565b5092915050565b600282810b9082900b03627fffff198112627fffff8213171561131857611318613403565b600281810b9083900b01627fffff8113627fffff198212171561131857611318613403565b81516001600160a01b03168152610160810160208301516137e260208401826001600160a01b03169052565b5060408301516137f9604084018262ffffff169052565b50606083015161380e606084018260020b9052565b506080830151613823608084018260020b9052565b5060a083015160a083015260c083015160c083015260e083015160e083015261010080840151818401525061012080840151613869828501826001600160a01b03169052565b505061014092830151919092015290565b6000806000806080858703121561389057600080fd5b845193506138a06020860161354a565b6040860151606090960151949790965092505050565b805169ffffffffffffffffffff8116811461352057600080fd5b600080600080600060a086880312156138e857600080fd5b6138f1866138b6565b9450602086015193506040860151925060608601519150613914608087016138b6565b90509295509295909350565b6001600160a01b0382811682821603908082111561376557613765613403565b600082516139528184602087016132b6565b9190910192915050565b6000600160ff1b820161397157613971613403565b5060000390565b60008160020b627fffff19810361399157613991613403565b60000392915050565b6000826139a9576139a96134c1565b50069056fea2646970667358221220f85f8a6506fde4c4e4cf1dc6887455fe8f0fe59ca5d423a784c7c941789fcf8664736f6c63430008140033",
  "devdoc": {
    "errors": {
      "AddressEmptyCode(address)": [
        {
          "details": "There's no code at `target` (it is not a contract)."
        }
      ],
      "AddressInsufficientBalance(address)": [
        {
          "details": "The ETH balance of the account is not enough to perform the operation."
        }
      ],
      "EnforcedPause()": [
        {
          "details": "The operation failed because the contract is paused."
        }
      ],
      "ExpectedPause()": [
        {
          "details": "The operation failed because the contract is not paused."
        }
      ],
      "FailedInnerCall()": [
        {
          "details": "A call to an address target failed. The target may have reverted."
        }
      ],
      "OwnableInvalidOwner(address)": [
        {
          "details": "The owner is not a valid owner account. (eg. `address(0)`)"
        }
      ],
      "OwnableUnauthorizedAccount(address)": [
        {
          "details": "The caller account is not authorized to perform an operation."
        }
      ],
      "ReentrancyGuardReentrantCall()": [
        {
          "details": "Unauthorized reentrant call."
        }
      ],
      "SafeERC20FailedOperation(address)": [
        {
          "details": "An operation with an ERC20 token failed."
        }
      ]
    },
    "events": {
      "Paused(address)": {
        "details": "Emitted when the pause is triggered by `account`."
      },
      "Unpaused(address)": {
        "details": "Emitted when the pause is lifted by `account`."
      }
    },
    "kind": "dev",
    "methods": {
      "checkUpkeep(bytes)": {
        "details": "Implementacin de la funcin checkUpkeep de Chainlink Automation.",
        "returns": {
          "performData": "Datos para realizar el mantenimiento.",
          "upkeepNeeded": "Indica si se necesita realizar mantenimiento."
        }
      },
      "emergencyWithdraw()": {
        "details": "Emergencia: permite al propietario retirar todos los fondos del contrato."
      },
      "getInvestmentValue(uint256)": {
        "details": "Obtiene el valor total de una inversion en USDC.",
        "params": {
          "investmentId": "El ID de la inversion."
        },
        "returns": {
          "_0": "El valor total de la inversion en USDC."
        }
      },
      "getTotalUsers()": {
        "details": "Obtiene el total de inversiones realizadas.",
        "returns": {
          "_0": "El numero total de usuarios con inversiones."
        }
      },
      "getUserInvestments(address)": {
        "details": "Obtiene todas las inversiones de un usuario.",
        "params": {
          "user": "La direccion del usuario."
        },
        "returns": {
          "_0": "Un array de inversiones del usuario."
        }
      },
      "invest(uint256,uint8)": {
        "details": "Permite a un usuario invertir USDC en la plataforma.",
        "params": {
          "amount": "La cantidad de USDC a invertir (6 decimales).",
          "investmentType": "El tipo de estrategia de inversion seleccionada."
        }
      },
      "owner()": {
        "details": "Returns the address of the current owner."
      },
      "pause()": {
        "details": "Pausa todas las operaciones del contrato."
      },
      "paused()": {
        "details": "Returns true if the contract is paused, and false otherwise."
      },
      "performUpkeep(bytes)": {
        "details": "Implementacion de la funcion performUpkeep de Chainlink Automation.",
        "params": {
          "performData": "Datos para realizar el mantenimiento."
        }
      },
      "renounceOwnership()": {
        "details": "Leaves the contract without owner. It will not be possible to call `onlyOwner` functions. Can only be called by the current owner. NOTE: Renouncing ownership will leave the contract without an owner, thereby disabling any functionality that is only available to the owner."
      },
      "setFeeCollector(address)": {
        "details": "Configura la direccion del colector de fees.",
        "params": {
          "_feeCollector": "La nueva direccion del colector de fees."
        }
      },
      "transferOwnership(address)": {
        "details": "Transfers ownership of the contract to a new account (`newOwner`). Can only be called by the current owner."
      },
      "unpause()": {
        "details": "Reanuda todas las operaciones del contrato."
      },
      "withdraw(uint256)": {
        "details": "Permite a un usuario retirar una inversion especifica.",
        "params": {
          "investmentId": "El ID de la inversion a retirar."
        }
      }
    },
    "version": 1
  },
  "userdoc": {
    "kind": "user",
    "methods": {},
    "version": 1
  },
  "storageLayout": {
    "storage": [
      {
        "astId": 1273,
        "contract": "contracts/YourContract.sol:MiPlata",
        "label": "_owner",
        "offset": 0,
        "slot": "0",
        "type": "t_address"
      },
      {
        "astId": 2404,
        "contract": "contracts/YourContract.sol:MiPlata",
        "label": "_status",
        "offset": 0,
        "slot": "1",
        "type": "t_uint256"
      },
      {
        "astId": 2285,
        "contract": "contracts/YourContract.sol:MiPlata",
        "label": "_paused",
        "offset": 0,
        "slot": "2",
        "type": "t_bool"
      },
      {
        "astId": 4542,
        "contract": "contracts/YourContract.sol:MiPlata",
        "label": "usdc",
        "offset": 1,
        "slot": "2",
        "type": "t_contract(IERC20)1490"
      },
      {
        "astId": 4545,
        "contract": "contracts/YourContract.sol:MiPlata",
        "label": "weth",
        "offset": 0,
        "slot": "3",
        "type": "t_contract(IERC20)1490"
      },
      {
        "astId": 4548,
        "contract": "contracts/YourContract.sol:MiPlata",
        "label": "uniswapRouter",
        "offset": 0,
        "slot": "4",
        "type": "t_contract(ISwapRouter)4049"
      },
      {
        "astId": 4551,
        "contract": "contracts/YourContract.sol:MiPlata",
        "label": "aavePool",
        "offset": 0,
        "slot": "5",
        "type": "t_contract(IPool)638"
      },
      {
        "astId": 4554,
        "contract": "contracts/YourContract.sol:MiPlata",
        "label": "ethUsdPriceFeed",
        "offset": 0,
        "slot": "6",
        "type": "t_contract(AggregatorV3Interface)1264"
      },
      {
        "astId": 4557,
        "contract": "contracts/YourContract.sol:MiPlata",
        "label": "uniswapPool",
        "offset": 0,
        "slot": "7",
        "type": "t_contract(IUniswapV3Pool)2496"
      },
      {
        "astId": 4560,
        "contract": "contracts/YourContract.sol:MiPlata",
        "label": "positionManager",
        "offset": 0,
        "slot": "8",
        "type": "t_contract(INonfungiblePositionManager)3888"
      },
      {
        "astId": 4598,
        "contract": "contracts/YourContract.sol:MiPlata",
        "label": "feeCollector",
        "offset": 0,
        "slot": "9",
        "type": "t_address"
      },
      {
        "astId": 4604,
        "contract": "contracts/YourContract.sol:MiPlata",
        "label": "investments",
        "offset": 0,
        "slot": "10",
        "type": "t_mapping(t_address,t_array(t_struct(UserInvestment)4539_storage)dyn_storage)"
      },
      {
        "astId": 4608,
        "contract": "contracts/YourContract.sol:MiPlata",
        "label": "userInvestmentCounters",
        "offset": 0,
        "slot": "11",
        "type": "t_mapping(t_address,t_uint256)"
      },
      {
        "astId": 4611,
        "contract": "contracts/YourContract.sol:MiPlata",
        "label": "userAddresses",
        "offset": 0,
        "slot": "12",
        "type": "t_array(t_address)dyn_storage"
      },
      {
        "astId": 4613,
        "contract": "contracts/YourContract.sol:MiPlata",
        "label": "lastProcessedUserIndex",
        "offset": 0,
        "slot": "13",
        "type": "t_uint256"
      },
      {
        "astId": 4660,
        "contract": "contracts/YourContract.sol:MiPlata",
        "label": "accumulatedFees",
        "offset": 0,
        "slot": "14",
        "type": "t_uint256"
      }
    ],
    "types": {
      "t_address": {
        "encoding": "inplace",
        "label": "address",
        "numberOfBytes": "20"
      },
      "t_array(t_address)dyn_storage": {
        "base": "t_address",
        "encoding": "dynamic_array",
        "label": "address[]",
        "numberOfBytes": "32"
      },
      "t_array(t_struct(UserInvestment)4539_storage)dyn_storage": {
        "base": "t_struct(UserInvestment)4539_storage",
        "encoding": "dynamic_array",
        "label": "struct MiPlata.UserInvestment[]",
        "numberOfBytes": "32"
      },
      "t_bool": {
        "encoding": "inplace",
        "label": "bool",
        "numberOfBytes": "1"
      },
      "t_contract(AggregatorV3Interface)1264": {
        "encoding": "inplace",
        "label": "contract AggregatorV3Interface",
        "numberOfBytes": "20"
      },
      "t_contract(IERC20)1490": {
        "encoding": "inplace",
        "label": "contract IERC20",
        "numberOfBytes": "20"
      },
      "t_contract(INonfungiblePositionManager)3888": {
        "encoding": "inplace",
        "label": "contract INonfungiblePositionManager",
        "numberOfBytes": "20"
      },
      "t_contract(IPool)638": {
        "encoding": "inplace",
        "label": "contract IPool",
        "numberOfBytes": "20"
      },
      "t_contract(ISwapRouter)4049": {
        "encoding": "inplace",
        "label": "contract ISwapRouter",
        "numberOfBytes": "20"
      },
      "t_contract(IUniswapV3Pool)2496": {
        "encoding": "inplace",
        "label": "contract IUniswapV3Pool",
        "numberOfBytes": "20"
      },
      "t_enum(InvestmentType)4519": {
        "encoding": "inplace",
        "label": "enum MiPlata.InvestmentType",
        "numberOfBytes": "1"
      },
      "t_mapping(t_address,t_array(t_struct(UserInvestment)4539_storage)dyn_storage)": {
        "encoding": "mapping",
        "key": "t_address",
        "label": "mapping(address => struct MiPlata.UserInvestment[])",
        "numberOfBytes": "32",
        "value": "t_array(t_struct(UserInvestment)4539_storage)dyn_storage"
      },
      "t_mapping(t_address,t_uint256)": {
        "encoding": "mapping",
        "key": "t_address",
        "label": "mapping(address => uint256)",
        "numberOfBytes": "32",
        "value": "t_uint256"
      },
      "t_struct(UserInvestment)4539_storage": {
        "encoding": "inplace",
        "label": "struct MiPlata.UserInvestment",
        "members": [
          {
            "astId": 4521,
            "contract": "contracts/YourContract.sol:MiPlata",
            "label": "investmentId",
            "offset": 0,
            "slot": "0",
            "type": "t_uint256"
          },
          {
            "astId": 4524,
            "contract": "contracts/YourContract.sol:MiPlata",
            "label": "investmentType",
            "offset": 0,
            "slot": "1",
            "type": "t_enum(InvestmentType)4519"
          },
          {
            "astId": 4526,
            "contract": "contracts/YourContract.sol:MiPlata",
            "label": "usdcDeposited",
            "offset": 0,
            "slot": "2",
            "type": "t_uint256"
          },
          {
            "astId": 4528,
            "contract": "contracts/YourContract.sol:MiPlata",
            "label": "wethBorrowed",
            "offset": 0,
            "slot": "3",
            "type": "t_uint256"
          },
          {
            "astId": 4530,
            "contract": "contracts/YourContract.sol:MiPlata",
            "label": "lastAutoCompound",
            "offset": 0,
            "slot": "4",
            "type": "t_uint256"
          },
          {
            "astId": 4532,
            "contract": "contracts/YourContract.sol:MiPlata",
            "label": "amplitude",
            "offset": 0,
            "slot": "5",
            "type": "t_uint256"
          },
          {
            "astId": 4534,
            "contract": "contracts/YourContract.sol:MiPlata",
            "label": "tokenId",
            "offset": 0,
            "slot": "6",
            "type": "t_uint256"
          },
          {
            "astId": 4536,
            "contract": "contracts/YourContract.sol:MiPlata",
            "label": "lastEthPrice",
            "offset": 0,
            "slot": "7",
            "type": "t_uint256"
          },
          {
            "astId": 4538,
            "contract": "contracts/YourContract.sol:MiPlata",
            "label": "timestamp",
            "offset": 0,
            "slot": "8",
            "type": "t_uint256"
          }
        ],
        "numberOfBytes": "288"
      },
      "t_uint256": {
        "encoding": "inplace",
        "label": "uint256",
        "numberOfBytes": "32"
      }
    }
  }
}